{
  "contractName": "Validation",
  "abi": [
    {
      "inputs": [],
      "payable": false,
      "stateMutability": "nonpayable",
      "type": "constructor"
    },
    {
      "anonymous": false,
      "inputs": [
        {
          "indexed": false,
          "internalType": "bytes32",
          "name": "_certificateId",
          "type": "bytes32"
        }
      ],
      "name": "certificateGenerated",
      "type": "event"
    },
    {
      "constant": true,
      "inputs": [
        {
          "internalType": "bytes32",
          "name": "",
          "type": "bytes32"
        }
      ],
      "name": "certificates",
      "outputs": [
        {
          "internalType": "string",
          "name": "Given_name",
          "type": "string"
        },
        {
          "internalType": "string",
          "name": "Family_name",
          "type": "string"
        },
        {
          "internalType": "uint16",
          "name": "National_identification_number",
          "type": "uint16"
        },
        {
          "internalType": "string",
          "name": "Date_of_birth",
          "type": "string"
        },
        {
          "internalType": "string",
          "name": "Scientific_discipline",
          "type": "string"
        },
        {
          "internalType": "string",
          "name": "Diploma_issued_by",
          "type": "string"
        },
        {
          "internalType": "string",
          "name": "Diploma_issue_date",
          "type": "string"
        }
      ],
      "payable": false,
      "stateMutability": "view",
      "type": "function"
    },
    {
      "constant": false,
      "inputs": [
        {
          "internalType": "string",
          "name": "_id",
          "type": "string"
        },
        {
          "internalType": "string",
          "name": "_Given_name",
          "type": "string"
        },
        {
          "internalType": "string",
          "name": "_Family_name",
          "type": "string"
        },
        {
          "internalType": "uint16",
          "name": "_National_identification_number",
          "type": "uint16"
        },
        {
          "internalType": "string",
          "name": "_Date_of_birth",
          "type": "string"
        },
        {
          "internalType": "string",
          "name": "_Scientific_discipline",
          "type": "string"
        },
        {
          "internalType": "string",
          "name": "_Diploma_issued_by",
          "type": "string"
        },
        {
          "internalType": "string",
          "name": "_Diploma_issue_date",
          "type": "string"
        }
      ],
      "name": "generateCertificate",
      "outputs": [],
      "payable": false,
      "stateMutability": "nonpayable",
      "type": "function"
    },
    {
      "constant": true,
      "inputs": [
        {
          "internalType": "string",
          "name": "_id",
          "type": "string"
        }
      ],
      "name": "getData",
      "outputs": [
        {
          "internalType": "string",
          "name": "",
          "type": "string"
        },
        {
          "internalType": "string",
          "name": "",
          "type": "string"
        },
        {
          "internalType": "uint16",
          "name": "",
          "type": "uint16"
        },
        {
          "internalType": "string",
          "name": "",
          "type": "string"
        },
        {
          "internalType": "string",
          "name": "",
          "type": "string"
        },
        {
          "internalType": "string",
          "name": "",
          "type": "string"
        },
        {
          "internalType": "string",
          "name": "",
          "type": "string"
        }
      ],
      "payable": false,
      "stateMutability": "view",
      "type": "function"
    }
  ],
  "bytecode": "0x608060405234801561001057600080fd5b5061122d806100206000396000f3fe608060405234801561001057600080fd5b50600436106100415760003560e01c8063742f068814610046578063a2d3f60b146102e8578063ae55c888146106b9575b600080fd5b6100636004803603602081101561005c57600080fd5b503561075d565b6040518080602001806020018861ffff1661ffff1681526020018060200180602001806020018060200187810387528e818151815260200191508051906020019080838360005b838110156100c25781810151838201526020016100aa565b50505050905090810190601f1680156100ef5780820380516001836020036101000a031916815260200191505b5087810386528d5181528d516020918201918f019080838360005b8381101561012257818101518382015260200161010a565b50505050905090810190601f16801561014f5780820380516001836020036101000a031916815260200191505b5087810385528b5181528b516020918201918d019080838360005b8381101561018257818101518382015260200161016a565b50505050905090810190601f1680156101af5780820380516001836020036101000a031916815260200191505b5087810384528a5181528a516020918201918c019080838360005b838110156101e25781810151838201526020016101ca565b50505050905090810190601f16801561020f5780820380516001836020036101000a031916815260200191505b5087810383528951815289516020918201918b019080838360005b8381101561024257818101518382015260200161022a565b50505050905090810190601f16801561026f5780820380516001836020036101000a031916815260200191505b5087810382528851815288516020918201918a019080838360005b838110156102a257818101518382015260200161028a565b50505050905090810190601f1680156102cf5780820380516001836020036101000a031916815260200191505b509d505050505050505050505050505060405180910390f35b6106b760048036036101008110156102ff57600080fd5b810190602081018135600160201b81111561031957600080fd5b82018360208201111561032b57600080fd5b803590602001918460018302840111600160201b8311171561034c57600080fd5b91908080601f0160208091040260200160405190810160405280939291908181526020018383808284376000920191909152509295949360208101935035915050600160201b81111561039e57600080fd5b8201836020820111156103b057600080fd5b803590602001918460018302840111600160201b831117156103d157600080fd5b91908080601f0160208091040260200160405190810160405280939291908181526020018383808284376000920191909152509295949360208101935035915050600160201b81111561042357600080fd5b82018360208201111561043557600080fd5b803590602001918460018302840111600160201b8311171561045657600080fd5b91908080601f016020809104026020016040519081016040528093929190818152602001838380828437600092019190915250929561ffff853516959094909350604081019250602001359050600160201b8111156104b457600080fd5b8201836020820111156104c657600080fd5b803590602001918460018302840111600160201b831117156104e757600080fd5b91908080601f0160208091040260200160405190810160405280939291908181526020018383808284376000920191909152509295949360208101935035915050600160201b81111561053957600080fd5b82018360208201111561054b57600080fd5b803590602001918460018302840111600160201b8311171561056c57600080fd5b91908080601f0160208091040260200160405190810160405280939291908181526020018383808284376000920191909152509295949360208101935035915050600160201b8111156105be57600080fd5b8201836020820111156105d057600080fd5b803590602001918460018302840111600160201b831117156105f157600080fd5b91908080601f0160208091040260200160405190810160405280939291908181526020018383808284376000920191909152509295949360208101935035915050600160201b81111561064357600080fd5b82018360208201111561065557600080fd5b803590602001918460018302840111600160201b8311171561067657600080fd5b91908080601f016020809104026020016040519081016040528093929190818152602001838380828437600092019190915250929550610ae6945050505050565b005b610063600480360360208110156106cf57600080fd5b810190602081018135600160201b8111156106e957600080fd5b8201836020820111156106fb57600080fd5b803590602001918460018302840111600160201b8311171561071c57600080fd5b91908080601f016020809104026020016040519081016040528093929190818152602001838380828437600092019190915250929550610c88945050505050565b6000602081815291815260409081902080548251601f6002600019610100600186161502019093169290920491820185900485028101850190935280835290928391908301828280156107f15780601f106107c6576101008083540402835291602001916107f1565b820191906000526020600020905b8154815290600101906020018083116107d457829003601f168201915b505050505090806001018054600181600116156101000203166002900480601f01602080910402602001604051908101604052809291908181526020018280546001816001161561010002031660029004801561088f5780601f106108645761010080835404028352916020019161088f565b820191906000526020600020905b81548152906001019060200180831161087257829003601f168201915b505050506002838101546003850180546040805160206101006001851615026000190190931695909504601f8101839004830286018301909152808552959661ffff9093169592945090919083018282801561092c5780601f106109015761010080835404028352916020019161092c565b820191906000526020600020905b81548152906001019060200180831161090f57829003601f168201915b5050505060048301805460408051602060026001851615610100026000190190941693909304601f81018490048402820184019092528181529495949350908301828280156109bc5780601f10610991576101008083540402835291602001916109bc565b820191906000526020600020905b81548152906001019060200180831161099f57829003601f168201915b5050505060058301805460408051602060026001851615610100026000190190941693909304601f8101849004840282018401909252818152949594935090830182828015610a4c5780601f10610a2157610100808354040283529160200191610a4c565b820191906000526020600020905b815481529060010190602001808311610a2f57829003601f168201915b5050505060068301805460408051602060026001851615610100026000190190941693909304601f8101849004840282018401909252818152949594935090830182828015610adc5780601f10610ab157610100808354040283529160200191610adc565b820191906000526020600020905b815481529060010190602001808311610abf57829003601f168201915b5050505050905087565b6000610af1896110d6565b60008181526020819052604090206002015490915061ffff1615610b465760405162461bcd60e51b81526004018080602001828103825260248152602001806111d56024913960400191505060405180910390fd5b6040805160e08101825289815260208082018a905261ffff891682840152606082018890526080820187905260a0820186905260c082018590526000848152808252929092208151805192939192610ba192849201906110f8565b506020828101518051610bba92600185019201906110f8565b50604082015160028201805461ffff191661ffff90921691909117905560608201518051610bf29160038401916020909101906110f8565b5060808201518051610c0e9160048401916020909101906110f8565b5060a08201518051610c2a9160058401916020909101906110f8565b5060c08201518051610c469160068401916020909101906110f8565b50506040805183815290517ff54e0f0055ffae318a21890316ed523f8a60aa59aaa279dfdcae7176155ec0db92509081900360200190a1505050505050505050565b60608060006060806060806000610c9e896110d6565b9050610ca8611176565b6000828152602081815260409182902082518154600260018216156101009081026000190190921604601f81018590049094028201810190945260e08101838152909391928492849190840182828015610d435780601f10610d1857610100808354040283529160200191610d43565b820191906000526020600020905b815481529060010190602001808311610d2657829003601f168201915b50505050508152602001600182018054600181600116156101000203166002900480601f016020809104026020016040519081016040528092919081815260200182805460018160011615610100020316600290048015610de55780601f10610dba57610100808354040283529160200191610de5565b820191906000526020600020905b815481529060010190602001808311610dc857829003601f168201915b505050918352505060028281015461ffff1660208084019190915260038401805460408051601f60001960018516156101000201909316959095049182018490048402850184018152818552909401939091830182828015610e885780601f10610e5d57610100808354040283529160200191610e88565b820191906000526020600020905b815481529060010190602001808311610e6b57829003601f168201915b505050918352505060048201805460408051602060026001851615610100026000190190941693909304601f8101849004840282018401909252818152938201939291830182828015610f1c5780601f10610ef157610100808354040283529160200191610f1c565b820191906000526020600020905b815481529060010190602001808311610eff57829003601f168201915b505050918352505060058201805460408051602060026001851615610100026000190190941693909304601f8101849004840282018401909252818152938201939291830182828015610fb05780601f10610f8557610100808354040283529160200191610fb0565b820191906000526020600020905b815481529060010190602001808311610f9357829003601f168201915b505050918352505060068201805460408051602060026001851615610100026000190190941693909304601f81018490048402820184019092528181529382019392918301828280156110445780601f1061101957610100808354040283529160200191611044565b820191906000526020600020905b81548152906001019060200180831161102757829003601f168201915b5050505050815250509050806040015161ffff166000141561109e576040805162461bcd60e51b815260206004820152600e60248201526d4e6f20646174612065786973747360901b604482015290519081900360640190fd5b8051602082015160408301516060840151608085015160a086015160c090960151949f939e50919c509a509850919650945092505050565b805160009082906110eb5750600090506110f3565b505060208101515b919050565b828054600181600116156101000203166002900490600052602060002090601f016020900481019282601f1061113957805160ff1916838001178555611166565b82800160010185558215611166579182015b8281111561116657825182559160200191906001019061114b565b506111729291506111b7565b5090565b6040518060e001604052806060815260200160608152602001600061ffff168152602001606081526020016060815260200160608152602001606081525090565b6111d191905b8082111561117257600081556001016111bd565b9056fe4469706c6f6d61207769746820676976656e20696420616c726561647920657869737473a265627a7a723158200e8f92755afab66f070dc85cca45e0a4259dee981b1b91676dfbc8185a90b6ea64736f6c63430005100032",
  "source": "pragma solidity ^0.5.16;\r\n\r\ncontract Validation {\r\n    constructor() public {}\r\n\r\n    struct Certificate {\r\n        string Given_name;\r\n        string Family_name;\r\n        uint16 National_identification_number;\r\n        string Date_of_birth;\r\n        string Scientific_discipline;\r\n        string Diploma_issued_by;\r\n        string Diploma_issue_date;\r\n    }\r\n\r\n    mapping(bytes32 => Certificate) public certificates;\r\n\r\n    event certificateGenerated(bytes32 _certificateId);\r\n\r\n    function stringToBytes32(string memory source) private pure returns (bytes32 result) {\r\n        bytes memory tempEmptyStringTest = bytes(source);\r\n        if (tempEmptyStringTest.length == 0) {\r\n            return 0x0;\r\n        }\r\n        assembly {\r\n                result := mload(add(source, 32))\r\n        }\r\n    }\r\n\r\n    function generateCertificate( \r\n        string memory _id,\r\n        string memory _Given_name,\r\n        string memory _Family_name,\r\n        uint16 _National_identification_number,\r\n        string memory _Date_of_birth,\r\n        string memory _Scientific_discipline,\r\n        string memory _Diploma_issued_by,\r\n        string memory _Diploma_issue_date) public {\r\n        bytes32 byte_id = stringToBytes32(_id);\r\n        require(certificates[byte_id].National_identification_number == 0, \"Diploma with given id already exists\");\r\n        certificates[byte_id] = Certificate(_Given_name, _Family_name, _National_identification_number, _Date_of_birth, \r\n        _Scientific_discipline, _Diploma_issued_by, _Diploma_issue_date);\r\n        emit certificateGenerated(byte_id);\r\n    }\r\n\r\n    function getData(string memory _id) public view returns(string memory, string memory, uint16, string memory, string memory, string memory, string memory) {\r\n        bytes32 byte_id = stringToBytes32(_id);\r\n        Certificate memory temp = certificates[byte_id];\r\n        require(temp.National_identification_number != 0, \"No data exists\");\r\n        return (temp.Given_name, temp.Family_name, temp.National_identification_number, temp.Date_of_birth, temp.Scientific_discipline, temp.Diploma_issued_by, temp.Diploma_issue_date);\r\n    }\r\n}",
  "sourcePath": "C:\\Users\\LENOVO GAMMING\\Dropbox\\Mon PC (DESKTOP-5KP8TU1)\\Documents\\p\\ReactApp2\\Portfolio_Project\\contracts\\Validation.sol",
  "compiler": {
    "name": "solc",
    "version": "0.5.16+commit.9c3226ce.Emscripten.clang"
  },
  "schemaVersion": "3.4.3",
  "updatedAt": "2021-10-29T10:18:19.296Z",
  "devdoc": {
    "methods": {}
  },
  "userdoc": {
    "methods": {}
  }
}