{
  "contractName": "Validation",
  "abi": [
    {
      "inputs": [],
      "payable": false,
      "stateMutability": "nonpayable",
      "type": "constructor"
    },
    {
      "anonymous": false,
      "inputs": [
        {
          "indexed": false,
          "internalType": "bytes32",
          "name": "_certificateId",
          "type": "bytes32"
        }
      ],
      "name": "certificateGenerated",
      "type": "event"
    },
    {
      "constant": true,
      "inputs": [
        {
          "internalType": "bytes32",
          "name": "",
          "type": "bytes32"
        }
      ],
      "name": "certificates",
      "outputs": [
        {
          "internalType": "string",
          "name": "Given_name",
          "type": "string"
        },
        {
          "internalType": "string",
          "name": "Family_name",
          "type": "string"
        },
        {
          "internalType": "uint16",
          "name": "National_identification_number",
          "type": "uint16"
        },
        {
          "internalType": "string",
          "name": "Date_of_birth",
          "type": "string"
        },
        {
          "internalType": "string",
          "name": "Scientific_discipline",
          "type": "string"
        },
        {
          "internalType": "string",
          "name": "Diploma_issued_by",
          "type": "string"
        },
        {
          "internalType": "string",
          "name": "Diploma_issue_date",
          "type": "string"
        }
      ],
      "payable": false,
      "stateMutability": "view",
      "type": "function"
    },
    {
      "constant": false,
      "inputs": [
        {
          "internalType": "string",
          "name": "_id",
          "type": "string"
        },
        {
          "internalType": "string",
          "name": "_Given_name",
          "type": "string"
        },
        {
          "internalType": "string",
          "name": "_Family_name",
          "type": "string"
        },
        {
          "internalType": "uint16",
          "name": "_National_identification_number",
          "type": "uint16"
        },
        {
          "internalType": "string",
          "name": "_Date_of_birth",
          "type": "string"
        },
        {
          "internalType": "string",
          "name": "_Scientific_discipline",
          "type": "string"
        },
        {
          "internalType": "string",
          "name": "_Diploma_issued_by",
          "type": "string"
        },
        {
          "internalType": "string",
          "name": "_Diploma_issue_date",
          "type": "string"
        }
      ],
      "name": "generateCertificate",
      "outputs": [],
      "payable": false,
      "stateMutability": "nonpayable",
      "type": "function"
    },
    {
      "constant": true,
      "inputs": [
        {
          "internalType": "string",
          "name": "_id",
          "type": "string"
        }
      ],
      "name": "getData",
      "outputs": [
        {
          "internalType": "string",
          "name": "",
          "type": "string"
        },
        {
          "internalType": "string",
          "name": "",
          "type": "string"
        },
        {
          "internalType": "uint16",
          "name": "",
          "type": "uint16"
        },
        {
          "internalType": "string",
          "name": "",
          "type": "string"
        },
        {
          "internalType": "string",
          "name": "",
          "type": "string"
        },
        {
          "internalType": "string",
          "name": "",
          "type": "string"
        },
        {
          "internalType": "string",
          "name": "",
          "type": "string"
        }
      ],
      "payable": false,
      "stateMutability": "view",
      "type": "function"
    }
  ],
  "bytecode": "0x608060405234801561001057600080fd5b506116fb806100206000396000f3fe608060405234801561001057600080fd5b50600436106100415760003560e01c8063742f068814610046578063a2d3f60b14610318578063ae55c8881461076c575b600080fd5b6100726004803603602081101561005c57600080fd5b8101908080359060200190929190505050610acb565b6040518080602001806020018861ffff1661ffff1681526020018060200180602001806020018060200187810387528e818151815260200191508051906020019080838360005b838110156100d45780820151818401526020810190506100b9565b50505050905090810190601f1680156101015780820380516001836020036101000a031916815260200191505b5087810386528d818151815260200191508051906020019080838360005b8381101561013a57808201518184015260208101905061011f565b50505050905090810190601f1680156101675780820380516001836020036101000a031916815260200191505b5087810385528b818151815260200191508051906020019080838360005b838110156101a0578082015181840152602081019050610185565b50505050905090810190601f1680156101cd5780820380516001836020036101000a031916815260200191505b5087810384528a818151815260200191508051906020019080838360005b838110156102065780820151818401526020810190506101eb565b50505050905090810190601f1680156102335780820380516001836020036101000a031916815260200191505b50878103835289818151815260200191508051906020019080838360005b8381101561026c578082015181840152602081019050610251565b50505050905090810190601f1680156102995780820380516001836020036101000a031916815260200191505b50878103825288818151815260200191508051906020019080838360005b838110156102d25780820151818401526020810190506102b7565b50505050905090810190601f1680156102ff5780820380516001836020036101000a031916815260200191505b509d505050505050505050505050505060405180910390f35b61076a600480360361010081101561032f57600080fd5b810190808035906020019064010000000081111561034c57600080fd5b82018360208201111561035e57600080fd5b8035906020019184600183028401116401000000008311171561038057600080fd5b91908080601f016020809104026020016040519081016040528093929190818152602001838380828437600081840152601f19601f820116905080830192505050505050509192919290803590602001906401000000008111156103e357600080fd5b8201836020820111156103f557600080fd5b8035906020019184600183028401116401000000008311171561041757600080fd5b91908080601f016020809104026020016040519081016040528093929190818152602001838380828437600081840152601f19601f8201169050808301925050505050505091929192908035906020019064010000000081111561047a57600080fd5b82018360208201111561048c57600080fd5b803590602001918460018302840111640100000000831117156104ae57600080fd5b91908080601f016020809104026020016040519081016040528093929190818152602001838380828437600081840152601f19601f820116905080830192505050505050509192919290803561ffff1690602001909291908035906020019064010000000081111561051f57600080fd5b82018360208201111561053157600080fd5b8035906020019184600183028401116401000000008311171561055357600080fd5b91908080601f016020809104026020016040519081016040528093929190818152602001838380828437600081840152601f19601f820116905080830192505050505050509192919290803590602001906401000000008111156105b657600080fd5b8201836020820111156105c857600080fd5b803590602001918460018302840111640100000000831117156105ea57600080fd5b91908080601f016020809104026020016040519081016040528093929190818152602001838380828437600081840152601f19601f8201169050808301925050505050505091929192908035906020019064010000000081111561064d57600080fd5b82018360208201111561065f57600080fd5b8035906020019184600183028401116401000000008311171561068157600080fd5b91908080601f016020809104026020016040519081016040528093929190818152602001838380828437600081840152601f19601f820116905080830192505050505050509192919290803590602001906401000000008111156106e457600080fd5b8201836020820111156106f657600080fd5b8035906020019184600183028401116401000000008311171561071857600080fd5b91908080601f016020809104026020016040519081016040528093929190818152602001838380828437600081840152601f19601f820116905080830192505050505050509192919290505050610eab565b005b6108256004803603602081101561078257600080fd5b810190808035906020019064010000000081111561079f57600080fd5b8201836020820111156107b157600080fd5b803590602001918460018302840111640100000000831117156107d357600080fd5b91908080601f016020809104026020016040519081016040528093929190818152602001838380828437600081840152601f19601f820116905080830192505050505050509192919290505050611097565b6040518080602001806020018861ffff1661ffff1681526020018060200180602001806020018060200187810387528e818151815260200191508051906020019080838360005b8381101561088757808201518184015260208101905061086c565b50505050905090810190601f1680156108b45780820380516001836020036101000a031916815260200191505b5087810386528d818151815260200191508051906020019080838360005b838110156108ed5780820151818401526020810190506108d2565b50505050905090810190601f16801561091a5780820380516001836020036101000a031916815260200191505b5087810385528b818151815260200191508051906020019080838360005b83811015610953578082015181840152602081019050610938565b50505050905090810190601f1680156109805780820380516001836020036101000a031916815260200191505b5087810384528a818151815260200191508051906020019080838360005b838110156109b957808201518184015260208101905061099e565b50505050905090810190601f1680156109e65780820380516001836020036101000a031916815260200191505b50878103835289818151815260200191508051906020019080838360005b83811015610a1f578082015181840152602081019050610a04565b50505050905090810190601f168015610a4c5780820380516001836020036101000a031916815260200191505b50878103825288818151815260200191508051906020019080838360005b83811015610a85578082015181840152602081019050610a6a565b50505050905090810190601f168015610ab25780820380516001836020036101000a031916815260200191505b509d505050505050505050505050505060405180910390f35b6000602052806000526040600020600091509050806000018054600181600116156101000203166002900480601f016020809104026020016040519081016040528092919081815260200182805460018160011615610100020316600290048015610b775780601f10610b4c57610100808354040283529160200191610b77565b820191906000526020600020905b815481529060010190602001808311610b5a57829003601f168201915b505050505090806001018054600181600116156101000203166002900480601f016020809104026020016040519081016040528092919081815260200182805460018160011615610100020316600290048015610c155780601f10610bea57610100808354040283529160200191610c15565b820191906000526020600020905b815481529060010190602001808311610bf857829003601f168201915b5050505050908060020160009054906101000a900461ffff1690806003018054600181600116156101000203166002900480601f016020809104026020016040519081016040528092919081815260200182805460018160011615610100020316600290048015610cc75780601f10610c9c57610100808354040283529160200191610cc7565b820191906000526020600020905b815481529060010190602001808311610caa57829003601f168201915b505050505090806004018054600181600116156101000203166002900480601f016020809104026020016040519081016040528092919081815260200182805460018160011615610100020316600290048015610d655780601f10610d3a57610100808354040283529160200191610d65565b820191906000526020600020905b815481529060010190602001808311610d4857829003601f168201915b505050505090806005018054600181600116156101000203166002900480601f016020809104026020016040519081016040528092919081815260200182805460018160011615610100020316600290048015610e035780601f10610dd857610100808354040283529160200191610e03565b820191906000526020600020905b815481529060010190602001808311610de657829003601f168201915b505050505090806006018054600181600116156101000203166002900480601f016020809104026020016040519081016040528092919081815260200182805460018160011615610100020316600290048015610ea15780601f10610e7657610100808354040283529160200191610ea1565b820191906000526020600020905b815481529060010190602001808311610e8457829003601f168201915b5050505050905087565b6000610eb689611591565b9050600080600083815260200190815260200160002060020160009054906101000a900461ffff1661ffff1614610f38576040517f08c379a00000000000000000000000000000000000000000000000000000000081526004018080602001828103825260248152602001806116a36024913960400191505060405180910390fd5b6040518060e001604052808981526020018881526020018761ffff168152602001868152602001858152602001848152602001838152506000808381526020019081526020016000206000820151816000019080519060200190610f9d9291906115bc565b506020820151816001019080519060200190610fba9291906115bc565b5060408201518160020160006101000a81548161ffff021916908361ffff1602179055506060820151816003019080519060200190610ffa9291906115bc565b5060808201518160040190805190602001906110179291906115bc565b5060a08201518160050190805190602001906110349291906115bc565b5060c08201518160060190805190602001906110519291906115bc565b509050507ff54e0f0055ffae318a21890316ed523f8a60aa59aaa279dfdcae7176155ec0db816040518082815260200191505060405180910390a1505050505050505050565b606080600060608060608060006110ad89611591565b90506110b761163c565b6000808381526020019081526020016000206040518060e0016040529081600082018054600181600116156101000203166002900480601f01602080910402602001604051908101604052809291908181526020018280546001816001161561010002031660029004801561116d5780601f106111425761010080835404028352916020019161116d565b820191906000526020600020905b81548152906001019060200180831161115057829003601f168201915b50505050508152602001600182018054600181600116156101000203166002900480601f01602080910402602001604051908101604052809291908181526020018280546001816001161561010002031660029004801561120f5780601f106111e45761010080835404028352916020019161120f565b820191906000526020600020905b8154815290600101906020018083116111f257829003601f168201915b505050505081526020016002820160009054906101000a900461ffff1661ffff1661ffff168152602001600382018054600181600116156101000203166002900480601f0160208091040260200160405190810160405280929190818152602001828054600181600116156101000203166002900480156112d15780601f106112a6576101008083540402835291602001916112d1565b820191906000526020600020905b8154815290600101906020018083116112b457829003601f168201915b50505050508152602001600482018054600181600116156101000203166002900480601f0160208091040260200160405190810160405280929190818152602001828054600181600116156101000203166002900480156113735780601f1061134857610100808354040283529160200191611373565b820191906000526020600020905b81548152906001019060200180831161135657829003601f168201915b50505050508152602001600582018054600181600116156101000203166002900480601f0160208091040260200160405190810160405280929190818152602001828054600181600116156101000203166002900480156114155780601f106113ea57610100808354040283529160200191611415565b820191906000526020600020905b8154815290600101906020018083116113f857829003601f168201915b50505050508152602001600682018054600181600116156101000203166002900480601f0160208091040260200160405190810160405280929190818152602001828054600181600116156101000203166002900480156114b75780601f1061148c576101008083540402835291602001916114b7565b820191906000526020600020905b81548152906001019060200180831161149a57829003601f168201915b50505050508152505090506000816040015161ffff161415611541576040517f08c379a000000000000000000000000000000000000000000000000000000000815260040180806020018281038252600e8152602001807f4e6f20646174612065786973747300000000000000000000000000000000000081525060200191505060405180910390fd5b806000015181602001518260400151836060015184608001518560a001518660c0015186965085955083935082925081915080905098509850985098509850985098505050919395979092949650565b600060608290506000815114156115ae576000801b9150506115b7565b60208301519150505b919050565b828054600181600116156101000203166002900490600052602060002090601f016020900481019282601f106115fd57805160ff191683800117855561162b565b8280016001018555821561162b579182015b8281111561162a57825182559160200191906001019061160f565b5b509050611638919061167d565b5090565b6040518060e001604052806060815260200160608152602001600061ffff168152602001606081526020016060815260200160608152602001606081525090565b61169f91905b8082111561169b576000816000905550600101611683565b5090565b9056fe4469706c6f6d61207769746820676976656e20696420616c726561647920657869737473a265627a7a723158201bd6b949165ef1e1b87de38398774fcaa8b44bce4dd949523f0d767eb963587b64736f6c63430005100032",
  "source": "pragma solidity ^0.5.16;\n\ncontract Validation {\n    constructor() public {}\n\n    struct Certificate {\n        string Given_name;\n        string Family_name;\n        uint16 National_identification_number;\n        string Date_of_birth;\n        string Scientific_discipline;\n        string Diploma_issued_by;\n        string Diploma_issue_date;\n    }\n\n    mapping(bytes32 => Certificate) public certificates;\n\n    event certificateGenerated(bytes32 _certificateId);\n\n    function stringToBytes32(string memory source) private pure returns (bytes32 result) {\n        bytes memory tempEmptyStringTest = bytes(source);\n        if (tempEmptyStringTest.length == 0) {\n            return 0x0;\n        }\n        assembly {\n                result := mload(add(source, 32))\n        }\n    }\n\n    function generateCertificate(\n        string memory _id,\n        string memory _Given_name,\n        string memory _Family_name,\n        uint16 _National_identification_number,\n        string memory _Date_of_birth,\n        string memory _Scientific_discipline,\n        string memory _Diploma_issued_by,\n        string memory _Diploma_issue_date) public {\n        bytes32 byte_id = stringToBytes32(_id);\n        require(certificates[byte_id].National_identification_number == 0, \"Diploma with given id already exists\");\n        certificates[byte_id] = Certificate(_Given_name, _Family_name, _National_identification_number, _Date_of_birth, \n        _Scientific_discipline, _Diploma_issued_by, _Diploma_issue_date);\n        emit certificateGenerated(byte_id);\n    }\n\n    function getData(string memory _id) public view returns(string memory, string memory, uint16, string memory, string memory, string memory, string memory) {\n        bytes32 byte_id = stringToBytes32(_id);\n        Certificate memory temp = certificates[byte_id];\n        require(temp.National_identification_number != 0, \"No data exists\");\n        return (temp.Given_name, temp.Family_name, temp.National_identification_number, temp.Date_of_birth, temp.Scientific_discipline, temp.Diploma_issued_by, temp.Diploma_issue_date);\n    }\n}\n",
  "sourcePath": "/home/maroua/Verification_Diploma/contracts/Validation.sol",
  "compiler": {
    "name": "solc",
    "version": "0.5.16+commit.9c3226ce.Emscripten.clang"
  },
  "schemaVersion": "3.4.3",
  "updatedAt": "2021-10-12T11:50:25.143Z",
  "devdoc": {
    "methods": {}
  },
  "userdoc": {
    "methods": {}
  }
}